{
  "contractName": "strategyStore",
  "abi": [
    {
      "constant": true,
      "inputs": [],
      "name": "count",
      "outputs": [
        {
          "name": "",
          "type": "uint256"
        }
      ],
      "payable": false,
      "stateMutability": "view",
      "type": "function"
    },
    {
      "constant": true,
      "inputs": [],
      "name": "scount",
      "outputs": [
        {
          "name": "",
          "type": "uint256"
        }
      ],
      "payable": false,
      "stateMutability": "view",
      "type": "function"
    },
    {
      "constant": true,
      "inputs": [
        {
          "name": "",
          "type": "address"
        }
      ],
      "name": "buyers",
      "outputs": [
        {
          "name": "bought_strategies",
          "type": "uint256"
        }
      ],
      "payable": false,
      "stateMutability": "view",
      "type": "function"
    },
    {
      "constant": true,
      "inputs": [
        {
          "name": "",
          "type": "uint256"
        }
      ],
      "name": "strategies",
      "outputs": [
        {
          "name": "owner",
          "type": "address"
        },
        {
          "name": "image",
          "type": "string"
        },
        {
          "name": "title",
          "type": "string"
        },
        {
          "name": "desciption",
          "type": "string"
        },
        {
          "name": "content",
          "type": "string"
        },
        {
          "name": "buyCount",
          "type": "uint256"
        },
        {
          "name": "price",
          "type": "uint256"
        },
        {
          "name": "score",
          "type": "uint256"
        },
        {
          "name": "voteCount",
          "type": "uint256"
        },
        {
          "name": "id",
          "type": "uint256"
        }
      ],
      "payable": false,
      "stateMutability": "view",
      "type": "function"
    },
    {
      "constant": true,
      "inputs": [],
      "name": "deployer",
      "outputs": [
        {
          "name": "",
          "type": "address"
        }
      ],
      "payable": false,
      "stateMutability": "view",
      "type": "function"
    },
    {
      "inputs": [],
      "payable": true,
      "stateMutability": "payable",
      "type": "constructor"
    },
    {
      "constant": true,
      "inputs": [
        {
          "name": "buyer",
          "type": "address"
        },
        {
          "name": "id",
          "type": "uint256"
        }
      ],
      "name": "getBought",
      "outputs": [
        {
          "name": "",
          "type": "bool"
        }
      ],
      "payable": false,
      "stateMutability": "view",
      "type": "function"
    },
    {
      "constant": true,
      "inputs": [
        {
          "name": "buyer",
          "type": "address"
        },
        {
          "name": "id",
          "type": "uint256"
        }
      ],
      "name": "getScore",
      "outputs": [
        {
          "name": "",
          "type": "uint256"
        }
      ],
      "payable": false,
      "stateMutability": "view",
      "type": "function"
    },
    {
      "constant": false,
      "inputs": [
        {
          "name": "id",
          "type": "uint256"
        },
        {
          "name": "_score",
          "type": "uint256"
        }
      ],
      "name": "vote",
      "outputs": [
        {
          "name": "",
          "type": "uint256"
        }
      ],
      "payable": false,
      "stateMutability": "nonpayable",
      "type": "function"
    },
    {
      "constant": false,
      "inputs": [
        {
          "name": "_image",
          "type": "string"
        },
        {
          "name": "_title",
          "type": "string"
        },
        {
          "name": "_description",
          "type": "string"
        },
        {
          "name": "_content",
          "type": "string"
        },
        {
          "name": "_price",
          "type": "uint256"
        }
      ],
      "name": "addStrategy",
      "outputs": [],
      "payable": false,
      "stateMutability": "nonpayable",
      "type": "function"
    },
    {
      "constant": false,
      "inputs": [
        {
          "name": "id",
          "type": "uint256"
        },
        {
          "name": "_image",
          "type": "string"
        },
        {
          "name": "_title",
          "type": "string"
        },
        {
          "name": "_description",
          "type": "string"
        },
        {
          "name": "_content",
          "type": "string"
        },
        {
          "name": "_price",
          "type": "uint256"
        }
      ],
      "name": "modifyStrategy",
      "outputs": [],
      "payable": false,
      "stateMutability": "nonpayable",
      "type": "function"
    },
    {
      "constant": false,
      "inputs": [
        {
          "name": "id",
          "type": "uint256"
        },
        {
          "name": "buyer",
          "type": "address"
        },
        {
          "name": "_price",
          "type": "uint256"
        }
      ],
      "name": "deleteStrategy",
      "outputs": [],
      "payable": false,
      "stateMutability": "nonpayable",
      "type": "function"
    },
    {
      "constant": false,
      "inputs": [
        {
          "name": "id",
          "type": "uint256"
        },
        {
          "name": "buyer",
          "type": "address"
        }
      ],
      "name": "buyStrategy",
      "outputs": [
        {
          "name": "id",
          "type": "uint256"
        }
      ],
      "payable": true,
      "stateMutability": "payable",
      "type": "function"
    },
    {
      "constant": true,
      "inputs": [
        {
          "name": "id",
          "type": "uint256"
        },
        {
          "name": "buyer",
          "type": "address"
        }
      ],
      "name": "topStrategy",
      "outputs": [
        {
          "name": "id",
          "type": "uint256"
        }
      ],
      "payable": false,
      "stateMutability": "view",
      "type": "function"
    },
    {
      "constant": true,
      "inputs": [],
      "name": "topStrategy",
      "outputs": [
        {
          "name": "id",
          "type": "uint256"
        }
      ],
      "payable": false,
      "stateMutability": "view",
      "type": "function"
    }
  ],
  "bytecode": "0x608060405233600460006101000a81548173ffffffffffffffffffffffffffffffffffffffff021916908373ffffffffffffffffffffffffffffffffffffffff160217905550611eb5806100546000396000f3fe6080604052600436106100c5576000357c0100000000000000000000000000000000000000000000000000000000900463ffffffff16806306661abd146100ca5780630bb69dc1146100f557806310a607ea1461038c5780631ea0fcbf1461062d5780633ee5e6b01461065857806380400aa3146106835780638726a9c5146106d1578063873020371461074457806397a993aa1461077f5780639d54080a146107e4578063b384abef14610853578063d574ea3d14610898578063d5f3948814610ae6575b600080fd5b3480156100d657600080fd5b506100df610b3d565b6040518082815260200191505060405180910390f35b34801561010157600080fd5b5061038a600480360360a081101561011857600080fd5b810190808035906020019064010000000081111561013557600080fd5b82018360208201111561014757600080fd5b8035906020019184600183028401116401000000008311171561016957600080fd5b91908080601f016020809104026020016040519081016040528093929190818152602001838380828437600081840152601f19601f820116905080830192505050505050509192919290803590602001906401000000008111156101cc57600080fd5b8201836020820111156101de57600080fd5b8035906020019184600183028401116401000000008311171561020057600080fd5b91908080601f016020809104026020016040519081016040528093929190818152602001838380828437600081840152601f19601f8201169050808301925050505050505091929192908035906020019064010000000081111561026357600080fd5b82018360208201111561027557600080fd5b8035906020019184600183028401116401000000008311171561029757600080fd5b91908080601f016020809104026020016040519081016040528093929190818152602001838380828437600081840152601f19601f820116905080830192505050505050509192919290803590602001906401000000008111156102fa57600080fd5b82018360208201111561030c57600080fd5b8035906020019184600183028401116401000000008311171561032e57600080fd5b91908080601f016020809104026020016040519081016040528093929190818152602001838380828437600081840152601f19601f82011690508083019250505050505050919291929080359060200190929190505050610b43565b005b34801561039857600080fd5b5061062b600480360360c08110156103af57600080fd5b8101908080359060200190929190803590602001906401000000008111156103d657600080fd5b8201836020820111156103e857600080fd5b8035906020019184600183028401116401000000008311171561040a57600080fd5b91908080601f016020809104026020016040519081016040528093929190818152602001838380828437600081840152601f19601f8201169050808301925050505050505091929192908035906020019064010000000081111561046d57600080fd5b82018360208201111561047f57600080fd5b803590602001918460018302840111640100000000831117156104a157600080fd5b91908080601f016020809104026020016040519081016040528093929190818152602001838380828437600081840152601f19601f8201169050808301925050505050505091929192908035906020019064010000000081111561050457600080fd5b82018360208201111561051657600080fd5b8035906020019184600183028401116401000000008311171561053857600080fd5b91908080601f016020809104026020016040519081016040528093929190818152602001838380828437600081840152601f19601f8201169050808301925050505050505091929192908035906020019064010000000081111561059b57600080fd5b8201836020820111156105ad57600080fd5b803590602001918460018302840111640100000000831117156105cf57600080fd5b91908080601f016020809104026020016040519081016040528093929190818152602001838380828437600081840152601f19601f82011690508083019250505050505050919291929080359060200190929190505050610cd6565b005b34801561063957600080fd5b50610642610e78565b6040518082815260200191505060405180910390f35b34801561066457600080fd5b5061066d610e7e565b6040518082815260200191505060405180910390f35b6106cf6004803603604081101561069957600080fd5b8101908080359060200190929190803573ffffffffffffffffffffffffffffffffffffffff169060200190929190505050610f5b565b005b3480156106dd57600080fd5b5061072a600480360360408110156106f457600080fd5b81019080803573ffffffffffffffffffffffffffffffffffffffff16906020019092919080359060200190929190505050611312565b604051808215151515815260200191505060405180910390f35b34801561075057600080fd5b5061077d6004803603602081101561076757600080fd5b810190808035906020019092919050505061137d565b005b34801561078b57600080fd5b506107ce600480360360208110156107a257600080fd5b81019080803573ffffffffffffffffffffffffffffffffffffffff16906020019092919050505061150f565b6040518082815260200191505060405180910390f35b3480156107f057600080fd5b5061083d6004803603604081101561080757600080fd5b81019080803573ffffffffffffffffffffffffffffffffffffffff1690602001909291908035906020019092919050505061152d565b6040518082815260200191505060405180910390f35b34801561085f57600080fd5b506108966004803603604081101561087657600080fd5b81019080803590602001909291908035906020019092919050505061158b565b005b3480156108a457600080fd5b506108d1600480360360208110156108bb57600080fd5b8101908080359060200190929190505050611a22565b604051808b73ffffffffffffffffffffffffffffffffffffffff1673ffffffffffffffffffffffffffffffffffffffff168152602001806020018060200180602001806020018a815260200189815260200188815260200187815260200186815260200185810385528e818151815260200191508051906020019080838360005b8381101561096d578082015181840152602081019050610952565b50505050905090810190601f16801561099a5780820380516001836020036101000a031916815260200191505b5085810384528d818151815260200191508051906020019080838360005b838110156109d35780820151818401526020810190506109b8565b50505050905090810190601f168015610a005780820380516001836020036101000a031916815260200191505b5085810383528c818151815260200191508051906020019080838360005b83811015610a39578082015181840152602081019050610a1e565b50505050905090810190601f168015610a665780820380516001836020036101000a031916815260200191505b5085810382528b818151815260200191508051906020019080838360005b83811015610a9f578082015181840152602081019050610a84565b50505050905090810190601f168015610acc5780820380516001836020036101000a031916815260200191505b509e50505050505050505050505050505060405180910390f35b348015610af257600080fd5b50610afb611cf6565b604051808273ffffffffffffffffffffffffffffffffffffffff1673ffffffffffffffffffffffffffffffffffffffff16815260200191505060405180910390f35b60025481565b610140604051908101604052803373ffffffffffffffffffffffffffffffffffffffff168152602001868152602001858152602001848152602001838152602001600081526020018281526020016000815260200160008152602001600254815250600080600254815260200190815260200160002060008201518160000160006101000a81548173ffffffffffffffffffffffffffffffffffffffff021916908373ffffffffffffffffffffffffffffffffffffffff1602179055506020820151816001019080519060200190610c1c929190611d1c565b506040820151816002019080519060200190610c39929190611d1c565b506060820151816003019080519060200190610c56929190611d1c565b506080820151816004019080519060200190610c73929190611d1c565b5060a0820151816005015560c0820151816006015560e08201518160070155610100820151816008015561012082015181600901559050506002600081548092919060010191905055506003600081548092919060010191905055505050505050565b60008087815260200190815260200160002060000160009054906101000a900473ffffffffffffffffffffffffffffffffffffffff1673ffffffffffffffffffffffffffffffffffffffff163373ffffffffffffffffffffffffffffffffffffffff16141515610dae576040517f08c379a000000000000000000000000000000000000000000000000000000000815260040180806020018281038252601a8152602001807f4e6f74206f776e6572206f66207468652073747261746567792e00000000000081525060200191505060405180910390fd5b846000808881526020019081526020016000206001019080519060200190610dd7929190611d9c565b50836000808881526020019081526020016000206002019080519060200190610e01929190611d9c565b50826000808881526020019081526020016000206003019080519060200190610e2b929190611d9c565b50816000808881526020019081526020016000206004019080519060200190610e55929190611d9c565b508060008088815260200190815260200160002060060181905550505050505050565b60035481565b600080600254111515610ef9576040517f08c379a000000000000000000000000000000000000000000000000000000000815260040180806020018281038252600c8152602001807f4e6f2073747261746567792e000000000000000000000000000000000000000081525060200191505060405180910390fd5b60008090506000600190505b60025481111515610f565781600080838152602001908152602001600020600701541115610f49578092506000808481526020019081526020016000206007015491505b8080600101915050610f05565b505090565b61271060008084815260200190815260200160002060060154013410151515610fec576040517f08c379a00000000000000000000000000000000000000000000000000000000081526004018080602001828103825260128152602001807f496e73756666696369656e742066756e642e000000000000000000000000000081525060200191505060405180910390fd5b8073ffffffffffffffffffffffffffffffffffffffff1660008084815260200190815260200160002060000160009054906101000a900473ffffffffffffffffffffffffffffffffffffffff1673ffffffffffffffffffffffffffffffffffffffff16141515156110c5576040517f08c379a000000000000000000000000000000000000000000000000000000000815260040180806020018281038252601e8152602001807f43616e206e6f742062757920796f7572206f776e2073747261746567792e000081525060200191505060405180910390fd5b600160008273ffffffffffffffffffffffffffffffffffffffff1673ffffffffffffffffffffffffffffffffffffffff168152602001908152602001600020600201600083815260200190815260200160002060009054906101000a900460ff1615151561119b576040517f08c379a00000000000000000000000000000000000000000000000000000000081526004018080602001828103825260108152602001807f426f756768742073747261746567792e0000000000000000000000000000000081525060200191505060405180910390fd5b6000808381526020019081526020016000206005016000815480929190600101919050555060018060008373ffffffffffffffffffffffffffffffffffffffff1673ffffffffffffffffffffffffffffffffffffffff168152602001908152602001600020600201600084815260200190815260200160002060006101000a81548160ff021916908315150217905550600160008273ffffffffffffffffffffffffffffffffffffffff1673ffffffffffffffffffffffffffffffffffffffff1681526020019081526020016000206000016000815480929190600101919050555060008083815260200190815260200160002060000160009054906101000a900473ffffffffffffffffffffffffffffffffffffffff1673ffffffffffffffffffffffffffffffffffffffff166108fc600080858152602001908152602001600020600601549081150290604051600060405180830381858888f1935050505015801561130d573d6000803e3d6000fd5b505050565b6000600160008473ffffffffffffffffffffffffffffffffffffffff1673ffffffffffffffffffffffffffffffffffffffff168152602001908152602001600020600201600083815260200190815260200160002060009054906101000a900460ff16905092915050565b60008082815260200190815260200160002060000160009054906101000a900473ffffffffffffffffffffffffffffffffffffffff1673ffffffffffffffffffffffffffffffffffffffff163373ffffffffffffffffffffffffffffffffffffffff16141515611455576040517f08c379a000000000000000000000000000000000000000000000000000000000815260040180806020018281038252601a8152602001807f4e6f74206f776e6572206f66207468652073747261746567792e00000000000081525060200191505060405180910390fd5b60036000815480929190600190039190505550600080828152602001908152602001600020600080820160006101000a81549073ffffffffffffffffffffffffffffffffffffffff02191690556001820160006114b29190611e1c565b6002820160006114c29190611e1c565b6003820160006114d29190611e1c565b6004820160006114e29190611e1c565b60058201600090556006820160009055600782016000905560088201600090556009820160009055505050565b60016020528060005260406000206000915090508060000154905081565b6000600160008473ffffffffffffffffffffffffffffffffffffffff1673ffffffffffffffffffffffffffffffffffffffff168152602001908152602001600020600101600083815260200190815260200160002054905092915050565b6001811015801561159d5750600a8111155b1515611611576040517f08c379a000000000000000000000000000000000000000000000000000000000815260040180806020018281038252600c8152602001807f53636f7265206572726f722e000000000000000000000000000000000000000081525060200191505060405180910390fd5b60008083815260200190815260200160002060000160009054906101000a900473ffffffffffffffffffffffffffffffffffffffff1673ffffffffffffffffffffffffffffffffffffffff163373ffffffffffffffffffffffffffffffffffffffff16141515156116ea576040517f08c379a00000000000000000000000000000000000000000000000000000000081526004018080602001828103825260198152602001807f53656c662d766f74656420697320646973616c6c6f7765642e0000000000000081525060200191505060405180910390fd5b600160003373ffffffffffffffffffffffffffffffffffffffff1673ffffffffffffffffffffffffffffffffffffffff168152602001908152602001600020600201600083815260200190815260200160002060009054906101000a900460ff1615156117bf576040517f08c379a00000000000000000000000000000000000000000000000000000000081526004018080602001828103825260128152602001807f556e626f756768742073747261746567792e000000000000000000000000000081525060200191505060405180910390fd5b6000600160003373ffffffffffffffffffffffffffffffffffffffff1673ffffffffffffffffffffffffffffffffffffffff16815260200190815260200160002060010160008481526020019081526020016000205414156119085760016000808481526020019081526020016000206008015401816000808581526020019081526020016000206008015460008086815260200190815260200160002060070154020181151561186c57fe5b04600080848152602001908152602001600020600701819055506000808381526020019081526020016000206008016000815480929190600101919050555080600160003373ffffffffffffffffffffffffffffffffffffffff1673ffffffffffffffffffffffffffffffffffffffff168152602001908152602001600020600101600084815260200190815260200160002081905550611a1e565b6000808381526020019081526020016000206008015481600160003373ffffffffffffffffffffffffffffffffffffffff1673ffffffffffffffffffffffffffffffffffffffff16815260200190815260200160002060010160008581526020019081526020016000205460008086815260200190815260200160002060080154600080878152602001908152602001600020600701540203018115156119ab57fe5b046000808481526020019081526020016000206007018190555080600160003373ffffffffffffffffffffffffffffffffffffffff1673ffffffffffffffffffffffffffffffffffffffff1681526020019081526020016000206001016000848152602001908152602001600020819055505b5050565b60006020528060005260406000206000915090508060000160009054906101000a900473ffffffffffffffffffffffffffffffffffffffff1690806001018054600181600116156101000203166002900480601f016020809104026020016040519081016040528092919081815260200182805460018160011615610100020316600290048015611af45780601f10611ac957610100808354040283529160200191611af4565b820191906000526020600020905b815481529060010190602001808311611ad757829003601f168201915b505050505090806002018054600181600116156101000203166002900480601f016020809104026020016040519081016040528092919081815260200182805460018160011615610100020316600290048015611b925780601f10611b6757610100808354040283529160200191611b92565b820191906000526020600020905b815481529060010190602001808311611b7557829003601f168201915b505050505090806003018054600181600116156101000203166002900480601f016020809104026020016040519081016040528092919081815260200182805460018160011615610100020316600290048015611c305780601f10611c0557610100808354040283529160200191611c30565b820191906000526020600020905b815481529060010190602001808311611c1357829003601f168201915b505050505090806004018054600181600116156101000203166002900480601f016020809104026020016040519081016040528092919081815260200182805460018160011615610100020316600290048015611cce5780601f10611ca357610100808354040283529160200191611cce565b820191906000526020600020905b815481529060010190602001808311611cb157829003601f168201915b505050505090806005015490806006015490806007015490806008015490806009015490508a565b600460009054906101000a900473ffffffffffffffffffffffffffffffffffffffff1681565b828054600181600116156101000203166002900490600052602060002090601f016020900481019282601f10611d5d57805160ff1916838001178555611d8b565b82800160010185558215611d8b579182015b82811115611d8a578251825591602001919060010190611d6f565b5b509050611d989190611e64565b5090565b828054600181600116156101000203166002900490600052602060002090601f016020900481019282601f10611ddd57805160ff1916838001178555611e0b565b82800160010185558215611e0b579182015b82811115611e0a578251825591602001919060010190611def565b5b509050611e189190611e64565b5090565b50805460018160011615610100020316600290046000825580601f10611e425750611e61565b601f016020900490600052602060002090810190611e609190611e64565b5b50565b611e8691905b80821115611e82576000816000905550600101611e6a565b5090565b9056fea165627a7a72305820f11259bff5d9572aee270edf49b908e384b23f402304a1f0dba0b9efdae072670029",
  "source": "pragma solidity ^0.5.0;\n\ncontract strategyStore{\n    //Strategy model\n    struct Strategy{\n        address payable owner;\n        string image;\n        string title;\n        string desciption;\n        string content;\n        uint buyCount;\n        uint price;\n        uint score;\n        uint voteCount;\n        uint id;\n    }\n    struct Buyer{\n        uint bought_strategies;\n        mapping(uint => uint) score;\n        mapping(uint => bool) bought;\n    }\n    //Fetch Strategy\n    mapping(uint => Strategy) public strategies;\n    //Fetch Buyer\n    mapping(address => Buyer) public buyers;\n    // ID of strategies\n    uint public count;\n    // Number of strategies\n    uint public scount;\n    // Address of deployer\n    address payable public deployer;\n    constructor () public payable{\n        deployer = msg.sender;\n    }\n    function getBought (address buyer, uint id) public view returns(bool){\n        return buyers[buyer].bought[id];\n    }\n    function getScore (address buyer, uint id) public view returns(uint){\n        return buyers[buyer].score[id];\n    }\n    // Vote on the strategy by id\n    function vote (uint id, uint _score) public{\n        require(_score >= 1 && _score <= 10, \"Score error.\");\n        require(msg.sender != strategies[id].owner, \"Self-voted is disallowed.\");\n        require(buyers[msg.sender].bought[id],\"Unbought strategy.\");\n        // If the buyer hasn't voted yet\n        if(buyers[msg.sender].score[id] == 0){\n            strategies[id].score = (strategies[id].score * strategies[id].voteCount + _score)/(strategies[id].voteCount + 1);\n            strategies[id].voteCount ++;\n            buyers[msg.sender].score[id] = _score;\n        }\n        // If the buyer has voted, change her score in the total score\n        else{\n            strategies[id].score = (strategies[id].score * strategies[id].voteCount - buyers[msg.sender].score[id] + _score)/(strategies[id].voteCount);\n            buyers[msg.sender].score[id] = _score;\n        }\n    }\n\n    function addStrategy(string memory _image, string memory _title, string memory _description, string memory _content, uint _price)public {\n        strategies[count] = Strategy(msg.sender, _image, _title, _description, _content, 0,  _price, 0, 0, count);\n        count ++;\n        scount ++;\n    }\n    function modifyStrategy(uint id, string memory _image, string memory _title,\n     string memory _description, string memory _content, uint _price)public {\n        require(\n            msg.sender == strategies[id].owner,\n            \"Not owner of the strategy.\"\n        );\n        strategies[id].image = _image;\n        strategies[id].title = _title;\n        strategies[id].desciption = _description;\n        strategies[id].content = _content;\n        strategies[id].price = _price;\n    }\n    \n    function deleteStrategy(uint id)public {\n        require(\n            msg.sender == strategies[id].owner,\n            \"Not owner of the strategy.\"\n        );\n        scount --;\n        delete strategies[id];\n    }\n\n    function buyStrategy(uint id, address buyer)public payable {\n        require(msg.value >= strategies[id].price + 1e4, \"Insufficient fund.\");\n        require(strategies[id].owner != buyer, \"Can not buy your own strategy.\");\n        require(!buyers[buyer].bought[id],\"Bought strategy.\");\n        strategies[id].buyCount ++;\n        buyers[buyer].bought[id] = true;\n        buyers[buyer].bought_strategies ++;\n        strategies[id].owner.transfer(strategies[id].price);\n        // //Transfer 0.01 * price of the strategies to the deployer\n        // deployer.transfer(msg.value - strategies[id].price);\n    }\n    // Fetch strategy with max score\n    function topStrategy()public view returns (uint id){\n        require(count > 0, \"No strategy.\");\n        uint maxScore = 0;\n        for(uint i = 1; i <= count; i ++){\n            if(strategies[i].score > maxScore){\n                id = i;\n                maxScore = strategies[id].score;\n            }\n        }\n        \n    }\n\n}",
  "sourcePath": "/home/zyt/bdt/6000D/strategyStore2/contracts/strategyStore.sol",
  "compiler": {
    "name": "solc",
    "version": "0.5.0+commit.1d4f565a.Emscripten.clang"
  },
  "schemaVersion": "3.0.9",
  "updatedAt": "2019-05-09T10:01:53.292Z",
  "devdoc": {
    "methods": {}
  },
  "userdoc": {
    "methods": {}
  }
}